{
  "_format": "hh-sol-artifact-1",
  "contractName": "PaymentEscrow",
  "sourceName": "contracts/paymentEscrow.sol",
  "abi": [
    {
      "inputs": [
        {
          "internalType": "address",
          "name": "_arbiter",
          "type": "address"
        },
        {
          "internalType": "address",
          "name": "_beneficiary",
          "type": "address"
        }
      ],
      "stateMutability": "payable",
      "type": "constructor"
    },
    {
      "inputs": [],
      "name": "PaymentEscrow__NotArbiter",
      "type": "error"
    },
    {
      "inputs": [],
      "name": "PaymentEscrow__PayerCannotBeArbiter",
      "type": "error"
    },
    {
      "inputs": [],
      "name": "PaymentEscrow__TransactionUnsuccesful",
      "type": "error"
    },
    {
      "anonymous": false,
      "inputs": [
        {
          "indexed": true,
          "internalType": "address",
          "name": "payer",
          "type": "address"
        },
        {
          "indexed": true,
          "internalType": "address",
          "name": "beneficiary",
          "type": "address"
        },
        {
          "indexed": false,
          "internalType": "uint256",
          "name": "amount",
          "type": "uint256"
        }
      ],
      "name": "Approved",
      "type": "event"
    },
    {
      "anonymous": false,
      "inputs": [
        {
          "indexed": true,
          "internalType": "address",
          "name": "payer",
          "type": "address"
        },
        {
          "indexed": true,
          "internalType": "address",
          "name": "beneficiary",
          "type": "address"
        },
        {
          "indexed": false,
          "internalType": "uint256",
          "name": "amount",
          "type": "uint256"
        }
      ],
      "name": "Payed",
      "type": "event"
    },
    {
      "inputs": [],
      "name": "approve",
      "outputs": [],
      "stateMutability": "nonpayable",
      "type": "function"
    },
    {
      "inputs": [],
      "name": "s_arbiter",
      "outputs": [
        {
          "internalType": "address",
          "name": "",
          "type": "address"
        }
      ],
      "stateMutability": "view",
      "type": "function"
    },
    {
      "inputs": [],
      "name": "s_beneficiary",
      "outputs": [
        {
          "internalType": "address",
          "name": "",
          "type": "address"
        }
      ],
      "stateMutability": "view",
      "type": "function"
    },
    {
      "inputs": [],
      "name": "s_isApproved",
      "outputs": [
        {
          "internalType": "bool",
          "name": "",
          "type": "bool"
        }
      ],
      "stateMutability": "view",
      "type": "function"
    },
    {
      "inputs": [],
      "name": "s_payer",
      "outputs": [
        {
          "internalType": "address",
          "name": "",
          "type": "address"
        }
      ],
      "stateMutability": "view",
      "type": "function"
    },
    {
      "stateMutability": "payable",
      "type": "receive"
    }
  ],
  "bytecode": "0x60806040526040516109e53803806109e583398181016040528101906100259190610256565b6000341015610060576040517f70320bff00000000000000000000000000000000000000000000000000000000815260040160405180910390fd5b3373ffffffffffffffffffffffffffffffffffffffff168273ffffffffffffffffffffffffffffffffffffffff16036100c5576040517fb0ce735000000000000000000000000000000000000000000000000000000000815260040160405180910390fd5b816000806101000a81548173ffffffffffffffffffffffffffffffffffffffff021916908373ffffffffffffffffffffffffffffffffffffffff16021790555080600160006101000a81548173ffffffffffffffffffffffffffffffffffffffff021916908373ffffffffffffffffffffffffffffffffffffffff16021790555033600260006101000a81548173ffffffffffffffffffffffffffffffffffffffff021916908373ffffffffffffffffffffffffffffffffffffffff1602179055508073ffffffffffffffffffffffffffffffffffffffff163373ffffffffffffffffffffffffffffffffffffffff167f51a1a06191430448721e292133222a18764e814e7470bbadccf67416cfd081f5346040516101e491906102af565b60405180910390a350506102ca565b600080fd5b600073ffffffffffffffffffffffffffffffffffffffff82169050919050565b6000610223826101f8565b9050919050565b61023381610218565b811461023e57600080fd5b50565b6000815190506102508161022a565b92915050565b6000806040838503121561026d5761026c6101f3565b5b600061027b85828601610241565b925050602061028c85828601610241565b9150509250929050565b6000819050919050565b6102a981610296565b82525050565b60006020820190506102c460008301846102a0565b92915050565b61070c806102d96000396000f3fe60806040526004361061004e5760003560e01c806312424e3f1461005a578063574b5695146100715780638dc092031461009c578063bbfeb52c146100c7578063d0e03e2b146100f257610055565b3661005557005b600080fd5b34801561006657600080fd5b5061006f61011d565b005b34801561007d57600080fd5b50610086610442565b60405161009391906104e0565b60405180910390f35b3480156100a857600080fd5b506100b1610455565b6040516100be919061053c565b60405180910390f35b3480156100d357600080fd5b506100dc61047b565b6040516100e9919061053c565b60405180910390f35b3480156100fe57600080fd5b5061010761049f565b604051610114919061053c565b60405180910390f35b60008054906101000a900473ffffffffffffffffffffffffffffffffffffffff1673ffffffffffffffffffffffffffffffffffffffff163373ffffffffffffffffffffffffffffffffffffffff16146101a2576040517fcf438efe00000000000000000000000000000000000000000000000000000000815260040160405180910390fd5b6000479050600060056103e8476101b991906105bf565b6101c391906105f0565b9050600060056103e8476101d791906105bf565b6101e191906105f0565b836101ec9190610632565b90506000600160009054906101000a900473ffffffffffffffffffffffffffffffffffffffff1673ffffffffffffffffffffffffffffffffffffffff168260405161023690610697565b60006040518083038185875af1925050503d8060008114610273576040519150601f19603f3d011682016040523d82523d6000602084013e610278565b606091505b50509050806102b3576040517f70320bff00000000000000000000000000000000000000000000000000000000815260040160405180910390fd5b60008060009054906101000a900473ffffffffffffffffffffffffffffffffffffffff1673ffffffffffffffffffffffffffffffffffffffff16846040516102fa90610697565b60006040518083038185875af1925050503d8060008114610337576040519150601f19603f3d011682016040523d82523d6000602084013e61033c565b606091505b5050905080610377576040517f70320bff00000000000000000000000000000000000000000000000000000000815260040160405180910390fd5b600160009054906101000a900473ffffffffffffffffffffffffffffffffffffffff1673ffffffffffffffffffffffffffffffffffffffff16600260009054906101000a900473ffffffffffffffffffffffffffffffffffffffff1673ffffffffffffffffffffffffffffffffffffffff167f80da462ebfbe41cfc9bc015e7a9a3c7a2a73dbccede72d8ceb583606c27f8f908560405161041891906106bb565b60405180910390a36001600260146101000a81548160ff0219169083151502179055505050505050565b600260149054906101000a900460ff1681565b600160009054906101000a900473ffffffffffffffffffffffffffffffffffffffff1681565b60008054906101000a900473ffffffffffffffffffffffffffffffffffffffff1681565b600260009054906101000a900473ffffffffffffffffffffffffffffffffffffffff1681565b60008115159050919050565b6104da816104c5565b82525050565b60006020820190506104f560008301846104d1565b92915050565b600073ffffffffffffffffffffffffffffffffffffffff82169050919050565b6000610526826104fb565b9050919050565b6105368161051b565b82525050565b6000602082019050610551600083018461052d565b92915050565b6000819050919050565b7f4e487b7100000000000000000000000000000000000000000000000000000000600052601260045260246000fd5b7f4e487b7100000000000000000000000000000000000000000000000000000000600052601160045260246000fd5b60006105ca82610557565b91506105d583610557565b9250826105e5576105e4610561565b5b828204905092915050565b60006105fb82610557565b915061060683610557565b925082820261061481610557565b9150828204841483151761062b5761062a610590565b5b5092915050565b600061063d82610557565b915061064883610557565b92508282039050818111156106605761065f610590565b5b92915050565b600081905092915050565b50565b6000610681600083610666565b915061068c82610671565b600082019050919050565b60006106a282610674565b9150819050919050565b6106b581610557565b82525050565b60006020820190506106d060008301846106ac565b9291505056fea26469706673582212200774324a5e6cd9841c7aea18288afc67c3cc43cd38d34eaf8b7103f8524916a064736f6c63430008120033",
  "linkReferences": {},
  "deployedLinkReferences": {}
}